{
  "_format": "hh-sol-artifact-1",
  "contractName": "Marketplace",
  "sourceName": "contracts/Marketplace.sol",
  "abi": [
    {
      "inputs": [
        {
          "internalType": "uint256",
          "name": "_feePercent",
          "type": "uint256"
        }
      ],
      "stateMutability": "nonpayable",
      "type": "constructor"
    },
    {
      "anonymous": false,
      "inputs": [
        {
          "indexed": false,
          "internalType": "uint256",
          "name": "itemId",
          "type": "uint256"
        },
        {
          "indexed": true,
          "internalType": "address",
          "name": "nft",
          "type": "address"
        },
        {
          "indexed": false,
          "internalType": "uint256",
          "name": "tokenId",
          "type": "uint256"
        },
        {
          "indexed": false,
          "internalType": "uint256",
          "name": "price",
          "type": "uint256"
        },
        {
          "indexed": true,
          "internalType": "address",
          "name": "seller",
          "type": "address"
        },
        {
          "indexed": true,
          "internalType": "address",
          "name": "buyer",
          "type": "address"
        }
      ],
      "name": "Bought",
      "type": "event"
    },
    {
      "anonymous": false,
      "inputs": [
        {
          "indexed": false,
          "internalType": "uint256",
          "name": "itemId",
          "type": "uint256"
        },
        {
          "indexed": true,
          "internalType": "address",
          "name": "nft",
          "type": "address"
        },
        {
          "indexed": false,
          "internalType": "uint256",
          "name": "tokenId",
          "type": "uint256"
        },
        {
          "indexed": false,
          "internalType": "uint256",
          "name": "price",
          "type": "uint256"
        },
        {
          "indexed": true,
          "internalType": "address",
          "name": "seller",
          "type": "address"
        }
      ],
      "name": "Offered",
      "type": "event"
    },
    {
      "inputs": [
        {
          "internalType": "uint256",
          "name": "_itemId",
          "type": "uint256"
        }
      ],
      "name": "Buy",
      "outputs": [],
      "stateMutability": "payable",
      "type": "function"
    },
    {
      "inputs": [],
      "name": "NGO",
      "outputs": [
        {
          "internalType": "address payable",
          "name": "",
          "type": "address"
        }
      ],
      "stateMutability": "view",
      "type": "function"
    },
    {
      "inputs": [],
      "name": "feeAccount",
      "outputs": [
        {
          "internalType": "address payable",
          "name": "",
          "type": "address"
        }
      ],
      "stateMutability": "view",
      "type": "function"
    },
    {
      "inputs": [],
      "name": "feePercent",
      "outputs": [
        {
          "internalType": "uint256",
          "name": "",
          "type": "uint256"
        }
      ],
      "stateMutability": "view",
      "type": "function"
    },
    {
      "inputs": [],
      "name": "getAllNft",
      "outputs": [
        {
          "components": [
            {
              "internalType": "uint256",
              "name": "itemId",
              "type": "uint256"
            },
            {
              "internalType": "contract IERC721",
              "name": "nft",
              "type": "address"
            },
            {
              "internalType": "uint256",
              "name": "tokenId",
              "type": "uint256"
            },
            {
              "internalType": "uint256",
              "name": "prevPrice",
              "type": "uint256"
            },
            {
              "internalType": "uint256",
              "name": "price",
              "type": "uint256"
            },
            {
              "internalType": "address payable",
              "name": "seller",
              "type": "address"
            },
            {
              "internalType": "bool",
              "name": "toBeSold",
              "type": "bool"
            },
            {
              "internalType": "address payable",
              "name": "creator",
              "type": "address"
            },
            {
              "internalType": "uint256",
              "name": "percentageDonated",
              "type": "uint256"
            },
            {
              "internalType": "uint256",
              "name": "royaltyPercentage",
              "type": "uint256"
            }
          ],
          "internalType": "struct Marketplace.Item[]",
          "name": "",
          "type": "tuple[]"
        }
      ],
      "stateMutability": "view",
      "type": "function"
    },
    {
      "inputs": [],
      "name": "getNft",
      "outputs": [
        {
          "components": [
            {
              "internalType": "uint256",
              "name": "itemId",
              "type": "uint256"
            },
            {
              "internalType": "contract IERC721",
              "name": "nft",
              "type": "address"
            },
            {
              "internalType": "uint256",
              "name": "tokenId",
              "type": "uint256"
            },
            {
              "internalType": "uint256",
              "name": "prevPrice",
              "type": "uint256"
            },
            {
              "internalType": "uint256",
              "name": "price",
              "type": "uint256"
            },
            {
              "internalType": "address payable",
              "name": "seller",
              "type": "address"
            },
            {
              "internalType": "bool",
              "name": "toBeSold",
              "type": "bool"
            },
            {
              "internalType": "address payable",
              "name": "creator",
              "type": "address"
            },
            {
              "internalType": "uint256",
              "name": "percentageDonated",
              "type": "uint256"
            },
            {
              "internalType": "uint256",
              "name": "royaltyPercentage",
              "type": "uint256"
            }
          ],
          "internalType": "struct Marketplace.Item[]",
          "name": "",
          "type": "tuple[]"
        }
      ],
      "stateMutability": "view",
      "type": "function"
    },
    {
      "inputs": [
        {
          "internalType": "uint256",
          "name": "_itemId",
          "type": "uint256"
        }
      ],
      "name": "getTotalPrice",
      "outputs": [
        {
          "internalType": "uint256",
          "name": "",
          "type": "uint256"
        }
      ],
      "stateMutability": "view",
      "type": "function"
    },
    {
      "inputs": [],
      "name": "itemCount",
      "outputs": [
        {
          "internalType": "uint256",
          "name": "",
          "type": "uint256"
        }
      ],
      "stateMutability": "view",
      "type": "function"
    },
    {
      "inputs": [
        {
          "internalType": "uint256",
          "name": "",
          "type": "uint256"
        }
      ],
      "name": "items",
      "outputs": [
        {
          "internalType": "uint256",
          "name": "itemId",
          "type": "uint256"
        },
        {
          "internalType": "contract IERC721",
          "name": "nft",
          "type": "address"
        },
        {
          "internalType": "uint256",
          "name": "tokenId",
          "type": "uint256"
        },
        {
          "internalType": "uint256",
          "name": "prevPrice",
          "type": "uint256"
        },
        {
          "internalType": "uint256",
          "name": "price",
          "type": "uint256"
        },
        {
          "internalType": "address payable",
          "name": "seller",
          "type": "address"
        },
        {
          "internalType": "bool",
          "name": "toBeSold",
          "type": "bool"
        },
        {
          "internalType": "address payable",
          "name": "creator",
          "type": "address"
        },
        {
          "internalType": "uint256",
          "name": "percentageDonated",
          "type": "uint256"
        },
        {
          "internalType": "uint256",
          "name": "royaltyPercentage",
          "type": "uint256"
        }
      ],
      "stateMutability": "view",
      "type": "function"
    },
    {
      "inputs": [
        {
          "internalType": "contract IERC721",
          "name": "_nft",
          "type": "address"
        },
        {
          "internalType": "uint256",
          "name": "_tokenId",
          "type": "uint256"
        },
        {
          "internalType": "uint256",
          "name": "_price",
          "type": "uint256"
        },
        {
          "internalType": "uint256",
          "name": "_percentageDonated",
          "type": "uint256"
        },
        {
          "internalType": "uint256",
          "name": "_royalty",
          "type": "uint256"
        }
      ],
      "name": "makeNFT",
      "outputs": [],
      "stateMutability": "nonpayable",
      "type": "function"
    },
    {
      "inputs": [
        {
          "internalType": "address",
          "name": "",
          "type": "address"
        },
        {
          "internalType": "uint256",
          "name": "",
          "type": "uint256"
        }
      ],
      "name": "owned_nft",
      "outputs": [
        {
          "internalType": "uint256",
          "name": "itemId",
          "type": "uint256"
        },
        {
          "internalType": "contract IERC721",
          "name": "nft",
          "type": "address"
        },
        {
          "internalType": "uint256",
          "name": "tokenId",
          "type": "uint256"
        },
        {
          "internalType": "uint256",
          "name": "prevPrice",
          "type": "uint256"
        },
        {
          "internalType": "uint256",
          "name": "price",
          "type": "uint256"
        },
        {
          "internalType": "address payable",
          "name": "seller",
          "type": "address"
        },
        {
          "internalType": "bool",
          "name": "toBeSold",
          "type": "bool"
        },
        {
          "internalType": "address payable",
          "name": "creator",
          "type": "address"
        },
        {
          "internalType": "uint256",
          "name": "percentageDonated",
          "type": "uint256"
        },
        {
          "internalType": "uint256",
          "name": "royaltyPercentage",
          "type": "uint256"
        }
      ],
      "stateMutability": "view",
      "type": "function"
    },
    {
      "inputs": [
        {
          "internalType": "uint256",
          "name": "_itemId",
          "type": "uint256"
        }
      ],
      "name": "removeNFT",
      "outputs": [],
      "stateMutability": "nonpayable",
      "type": "function"
    },
    {
      "inputs": [
        {
          "internalType": "uint256",
          "name": "_price",
          "type": "uint256"
        },
        {
          "internalType": "uint256",
          "name": "_itemId",
          "type": "uint256"
        }
      ],
      "name": "updatePrice",
      "outputs": [],
      "stateMutability": "nonpayable",
      "type": "function"
    }
  ],
  "bytecode": "0x60e06040523480156200001157600080fd5b5060405162002281380380620022818339818101604052810190620000379190620000ee565b3373ffffffffffffffffffffffffffffffffffffffff1660808173ffffffffffffffffffffffffffffffffffffffff16815250508060a081815250503373ffffffffffffffffffffffffffffffffffffffff1660c08173ffffffffffffffffffffffffffffffffffffffff16815250505062000120565b600080fd5b6000819050919050565b620000c881620000b3565b8114620000d457600080fd5b50565b600081519050620000e881620000bd565b92915050565b600060208284031215620001075762000106620000ae565b5b60006200011784828501620000d7565b91505092915050565b60805160a05160c05161211c6200016560003960008181610960015261115f0152600081816110cb015261143e015260008181610b2e0152610fc3015261211c6000f3fe6080604052600436106100c25760003560e01c80637fd6f15c1161007f578063ac513fb811610059578063ac513fb814610252578063bfb231d21461027d578063ca7dd375146102c3578063ee4739cb14610300576100c2565b80637fd6f15c146101d357806382367b2d146101fe578063937d7f1114610227576100c2565b806304d1afe7146100c75780633e328218146100f057806363ba31cf1461010c57806365e17c9d146101375780636bfb0d01146101625780636f2229f21461018d575b600080fd5b3480156100d357600080fd5b506100ee60048036038101906100e991906117f9565b610329565b005b61010a60048036038101906101059190611874565b61077e565b005b34801561011857600080fd5b50610121610d99565b60405161012e9190611ac7565b60405180910390f35b34801561014357600080fd5b5061014c610fc1565b6040516101599190611af8565b60405180910390f35b34801561016e57600080fd5b50610177610fe5565b6040516101849190611b22565b60405180910390f35b34801561019957600080fd5b506101b460048036038101906101af9190611b69565b610feb565b6040516101ca9a99989796959493929190611bc7565b60405180910390f35b3480156101df57600080fd5b506101e86110c9565b6040516101f59190611b22565b60405180910390f35b34801561020a57600080fd5b5061022560048036038101906102209190611c63565b6110ed565b005b34801561023357600080fd5b5061023c61115d565b6040516102499190611af8565b60405180910390f35b34801561025e57600080fd5b50610267611181565b6040516102749190611ac7565b60405180910390f35b34801561028957600080fd5b506102a4600480360381019061029f9190611874565b611377565b6040516102ba9a99989796959493929190611bc7565b60405180910390f35b3480156102cf57600080fd5b506102ea60048036038101906102e59190611874565b611438565b6040516102f79190611b22565b60405180910390f35b34801561030c57600080fd5b5061032760048036038101906103229190611874565b61149b565b005b6000831161036c576040517f08c379a000000000000000000000000000000000000000000000000000000000815260040161036390611d00565b60405180910390fd5b60008081548092919061037e90611d4f565b919050555060405180610140016040528060005481526020018673ffffffffffffffffffffffffffffffffffffffff168152602001858152602001600081526020018481526020013373ffffffffffffffffffffffffffffffffffffffff1681526020016000151581526020013373ffffffffffffffffffffffffffffffffffffffff1681526020018381526020018281525060016000805481526020019081526020016000206000820151816000015560208201518160010160006101000a81548173ffffffffffffffffffffffffffffffffffffffff021916908373ffffffffffffffffffffffffffffffffffffffff16021790555060408201518160020155606082015181600301556080820151816004015560a08201518160050160006101000a81548173ffffffffffffffffffffffffffffffffffffffff021916908373ffffffffffffffffffffffffffffffffffffffff16021790555060c08201518160050160146101000a81548160ff02191690831515021790555060e08201518160060160006101000a81548173ffffffffffffffffffffffffffffffffffffffff021916908373ffffffffffffffffffffffffffffffffffffffff16021790555061010082015181600701556101208201518160080155905050600260003373ffffffffffffffffffffffffffffffffffffffff1673ffffffffffffffffffffffffffffffffffffffff16815260200190815260200160002060016000805481526020019081526020016000209080600181540180825580915050600190039060005260206000209060090201600090919091909150600082015481600001556001820160009054906101000a900473ffffffffffffffffffffffffffffffffffffffff168160010160006101000a81548173ffffffffffffffffffffffffffffffffffffffff021916908373ffffffffffffffffffffffffffffffffffffffff1602179055506002820154816002015560038201548160030155600482015481600401556005820160009054906101000a900473ffffffffffffffffffffffffffffffffffffffff168160050160006101000a81548173ffffffffffffffffffffffffffffffffffffffff021916908373ffffffffffffffffffffffffffffffffffffffff1602179055506005820160149054906101000a900460ff168160050160146101000a81548160ff0219169083151502179055506006820160009054906101000a900473ffffffffffffffffffffffffffffffffffffffff168160060160006101000a81548173ffffffffffffffffffffffffffffffffffffffff021916908373ffffffffffffffffffffffffffffffffffffffff160217905550600782015481600701556008820154816008015550505050505050565b60008111801561079057506000548111155b6107cf576040517f08c379a00000000000000000000000000000000000000000000000000000000081526004016107c690611de3565b60405180910390fd5b60006107da82611438565b90508034111561081f576040517f08c379a000000000000000000000000000000000000000000000000000000000815260040161081690611e75565b60405180910390fd5b60006001600084815260200190815260200160002090508060050160149054906101000a900460ff1615610888576040517f08c379a000000000000000000000000000000000000000000000000000000000815260040161087f90611ee1565b60405180910390fd5b6000610897826000015461151e565b90506000811115610abc57600081606484600701546108b69190611f30565b6108c09190611f61565b905060008360050160009054906101000a900473ffffffffffffffffffffffffffffffffffffffff1673ffffffffffffffffffffffffffffffffffffffff168460060160009054906101000a900473ffffffffffffffffffffffffffffffffffffffff1673ffffffffffffffffffffffffffffffffffffffff161461095e5782606485600801546109519190611f30565b61095b9190611f61565b90505b7f000000000000000000000000000000000000000000000000000000000000000073ffffffffffffffffffffffffffffffffffffffff166108fc839081150290604051600060405180830381858888f193505050501580156109c4573d6000803e3d6000fd5b508360060160009054906101000a900473ffffffffffffffffffffffffffffffffffffffff1673ffffffffffffffffffffffffffffffffffffffff166108fc829081150290604051600060405180830381858888f19350505050158015610a2f573d6000803e3d6000fd5b508360050160009054906101000a900473ffffffffffffffffffffffffffffffffffffffff1673ffffffffffffffffffffffffffffffffffffffff166108fc82848760040154610a7f9190611fa3565b610a899190611fa3565b9081150290604051600060405180830381858888f19350505050158015610ab4573d6000803e3d6000fd5b505050610b2c565b8160050160009054906101000a900473ffffffffffffffffffffffffffffffffffffffff1673ffffffffffffffffffffffffffffffffffffffff166108fc83600401549081150290604051600060405180830381858888f19350505050158015610b2a573d6000803e3d6000fd5b505b7f000000000000000000000000000000000000000000000000000000000000000073ffffffffffffffffffffffffffffffffffffffff166108fc836004015485610b769190611fa3565b9081150290604051600060405180830381858888f19350505050158015610ba1573d6000803e3d6000fd5b5060008260050160146101000a81548160ff0219169083151502179055508160010160009054906101000a900473ffffffffffffffffffffffffffffffffffffffff1673ffffffffffffffffffffffffffffffffffffffff166323b872dd303385600201546040518463ffffffff1660e01b8152600401610c2493929190611fe6565b600060405180830381600087803b158015610c3e57600080fd5b505af1158015610c52573d6000803e3d6000fd5b50505050338260050160006101000a81548173ffffffffffffffffffffffffffffffffffffffff021916908373ffffffffffffffffffffffffffffffffffffffff1602179055508160040154826003018190555060008260050160146101000a81548160ff0219169083151502179055503373ffffffffffffffffffffffffffffffffffffffff168260050160009054906101000a900473ffffffffffffffffffffffffffffffffffffffff1673ffffffffffffffffffffffffffffffffffffffff168360010160009054906101000a900473ffffffffffffffffffffffffffffffffffffffff1673ffffffffffffffffffffffffffffffffffffffff167f8b4c9c8a607d67b321582dd8461041b1dc2ceeca70c8b7f37f8e02095cf2e76d8786600201548760040154604051610d8b9392919061201d565b60405180910390a450505050565b60606000805467ffffffffffffffff811115610db857610db7612054565b5b604051908082528060200260200182016040528015610df157816020015b610dde6116b7565b815260200190600190039081610dd65790505b5090506000600190505b6000548111610fb9576001600082815260200190815260200160002060405180610140016040529081600082015481526020016001820160009054906101000a900473ffffffffffffffffffffffffffffffffffffffff1673ffffffffffffffffffffffffffffffffffffffff1673ffffffffffffffffffffffffffffffffffffffff1681526020016002820154815260200160038201548152602001600482015481526020016005820160009054906101000a900473ffffffffffffffffffffffffffffffffffffffff1673ffffffffffffffffffffffffffffffffffffffff1673ffffffffffffffffffffffffffffffffffffffff1681526020016005820160149054906101000a900460ff161515151581526020016006820160009054906101000a900473ffffffffffffffffffffffffffffffffffffffff1673ffffffffffffffffffffffffffffffffffffffff1673ffffffffffffffffffffffffffffffffffffffff1681526020016007820154815260200160088201548152505082600183610f8a9190611fa3565b81518110610f9b57610f9a612083565b5b60200260200101819052508080610fb190611d4f565b915050610dfb565b508091505090565b7f000000000000000000000000000000000000000000000000000000000000000081565b60005481565b6002602052816000526040600020818154811061100757600080fd5b9060005260206000209060090201600091509150508060000154908060010160009054906101000a900473ffffffffffffffffffffffffffffffffffffffff16908060020154908060030154908060040154908060050160009054906101000a900473ffffffffffffffffffffffffffffffffffffffff16908060050160149054906101000a900460ff16908060060160009054906101000a900473ffffffffffffffffffffffffffffffffffffffff1690806007015490806008015490508a565b7f000000000000000000000000000000000000000000000000000000000000000081565b6000811180156110ff57506000548111155b61113e576040517f08c379a000000000000000000000000000000000000000000000000000000000815260040161113590611de3565b60405180910390fd5b8160016000838152602001908152602001600020600401819055505050565b7f000000000000000000000000000000000000000000000000000000000000000081565b6060600260003373ffffffffffffffffffffffffffffffffffffffff1673ffffffffffffffffffffffffffffffffffffffff168152602001908152602001600020805480602002602001604051908101604052809291908181526020016000905b8282101561136e578382906000526020600020906009020160405180610140016040529081600082015481526020016001820160009054906101000a900473ffffffffffffffffffffffffffffffffffffffff1673ffffffffffffffffffffffffffffffffffffffff1673ffffffffffffffffffffffffffffffffffffffff1681526020016002820154815260200160038201548152602001600482015481526020016005820160009054906101000a900473ffffffffffffffffffffffffffffffffffffffff1673ffffffffffffffffffffffffffffffffffffffff1673ffffffffffffffffffffffffffffffffffffffff1681526020016005820160149054906101000a900460ff161515151581526020016006820160009054906101000a900473ffffffffffffffffffffffffffffffffffffffff1673ffffffffffffffffffffffffffffffffffffffff1673ffffffffffffffffffffffffffffffffffffffff16815260200160078201548152602001600882015481525050815260200190600101906111e2565b50505050905090565b60016020528060005260406000206000915090508060000154908060010160009054906101000a900473ffffffffffffffffffffffffffffffffffffffff16908060020154908060030154908060040154908060050160009054906101000a900473ffffffffffffffffffffffffffffffffffffffff16908060050160149054906101000a900460ff16908060060160009054906101000a900473ffffffffffffffffffffffffffffffffffffffff1690806007015490806008015490508a565b600060647f0000000000000000000000000000000000000000000000000000000000000000606461146991906120b2565b600160008581526020019081526020016000206004015461148a9190611f61565b6114949190611f30565b9050919050565b6000811180156114ad57506000548111155b6114ec576040517f08c379a00000000000000000000000000000000000000000000000000000000081526004016114e390611de3565b60405180910390fd5b60006001600083815260200190815260200160002060050160146101000a81548160ff02191690831515021790555050565b6000806001600084815260200190815260200160002060405180610140016040529081600082015481526020016001820160009054906101000a900473ffffffffffffffffffffffffffffffffffffffff1673ffffffffffffffffffffffffffffffffffffffff1673ffffffffffffffffffffffffffffffffffffffff1681526020016002820154815260200160038201548152602001600482015481526020016005820160009054906101000a900473ffffffffffffffffffffffffffffffffffffffff1673ffffffffffffffffffffffffffffffffffffffff1673ffffffffffffffffffffffffffffffffffffffff1681526020016005820160149054906101000a900460ff161515151581526020016006820160009054906101000a900473ffffffffffffffffffffffffffffffffffffffff1673ffffffffffffffffffffffffffffffffffffffff1673ffffffffffffffffffffffffffffffffffffffff168152602001600782015481526020016008820154815250509050806080015181606001516116af9190611fa3565b915050919050565b60405180610140016040528060008152602001600073ffffffffffffffffffffffffffffffffffffffff168152602001600081526020016000815260200160008152602001600073ffffffffffffffffffffffffffffffffffffffff168152602001600015158152602001600073ffffffffffffffffffffffffffffffffffffffff16815260200160008152602001600081525090565b600080fd5b600073ffffffffffffffffffffffffffffffffffffffff82169050919050565b600061177e82611753565b9050919050565b600061179082611773565b9050919050565b6117a081611785565b81146117ab57600080fd5b50565b6000813590506117bd81611797565b92915050565b6000819050919050565b6117d6816117c3565b81146117e157600080fd5b50565b6000813590506117f3816117cd565b92915050565b600080600080600060a086880312156118155761181461174e565b5b6000611823888289016117ae565b9550506020611834888289016117e4565b9450506040611845888289016117e4565b9350506060611856888289016117e4565b9250506080611867888289016117e4565b9150509295509295909350565b60006020828403121561188a5761188961174e565b5b6000611898848285016117e4565b91505092915050565b600081519050919050565b600082825260208201905092915050565b6000819050602082019050919050565b6118d6816117c3565b82525050565b6000819050919050565b60006119016118fc6118f784611753565b6118dc565b611753565b9050919050565b6000611913826118e6565b9050919050565b600061192582611908565b9050919050565b6119358161191a565b82525050565b600061194682611753565b9050919050565b6119568161193b565b82525050565b60008115159050919050565b6119718161195c565b82525050565b6101408201600082015161198e60008501826118cd565b5060208201516119a1602085018261192c565b5060408201516119b460408501826118cd565b5060608201516119c760608501826118cd565b5060808201516119da60808501826118cd565b5060a08201516119ed60a085018261194d565b5060c0820151611a0060c0850182611968565b5060e0820151611a1360e085018261194d565b50610100820151611a286101008501826118cd565b50610120820151611a3d6101208501826118cd565b50505050565b6000611a4f8383611977565b6101408301905092915050565b6000602082019050919050565b6000611a74826118a1565b611a7e81856118ac565b9350611a89836118bd565b8060005b83811015611aba578151611aa18882611a43565b9750611aac83611a5c565b925050600181019050611a8d565b5085935050505092915050565b60006020820190508181036000830152611ae18184611a69565b905092915050565b611af28161193b565b82525050565b6000602082019050611b0d6000830184611ae9565b92915050565b611b1c816117c3565b82525050565b6000602082019050611b376000830184611b13565b92915050565b611b4681611773565b8114611b5157600080fd5b50565b600081359050611b6381611b3d565b92915050565b60008060408385031215611b8057611b7f61174e565b5b6000611b8e85828601611b54565b9250506020611b9f858286016117e4565b9150509250929050565b611bb28161191a565b82525050565b611bc18161195c565b82525050565b600061014082019050611bdd600083018d611b13565b611bea602083018c611ba9565b611bf7604083018b611b13565b611c04606083018a611b13565b611c116080830189611b13565b611c1e60a0830188611ae9565b611c2b60c0830187611bb8565b611c3860e0830186611ae9565b611c46610100830185611b13565b611c54610120830184611b13565b9b9a5050505050505050505050565b60008060408385031215611c7a57611c7961174e565b5b6000611c88858286016117e4565b9250506020611c99858286016117e4565b9150509250929050565b600082825260208201905092915050565b7f5072696365206d7573742062652067726561746572207468616e207a65726f00600082015250565b6000611cea601f83611ca3565b9150611cf582611cb4565b602082019050919050565b60006020820190508181036000830152611d1981611cdd565b9050919050565b7f4e487b7100000000000000000000000000000000000000000000000000000000600052601160045260246000fd5b6000611d5a826117c3565b91507fffffffffffffffffffffffffffffffffffffffffffffffffffffffffffffffff8203611d8c57611d8b611d20565b5b600182019050919050565b7f6974656d20646f65736e27742065786973740000000000000000000000000000600082015250565b6000611dcd601283611ca3565b9150611dd882611d97565b602082019050919050565b60006020820190508181036000830152611dfc81611dc0565b9050919050565b7f6e6f7420656e6f75676820657468657220746f20636f766572206974656d207060008201527f7269636520616e64206d61726b65742066656500000000000000000000000000602082015250565b6000611e5f603383611ca3565b9150611e6a82611e03565b604082019050919050565b60006020820190508181036000830152611e8e81611e52565b9050919050565b7f6974656d20616c726561647920736f6c64000000000000000000000000000000600082015250565b6000611ecb601183611ca3565b9150611ed682611e95565b602082019050919050565b60006020820190508181036000830152611efa81611ebe565b9050919050565b7f4e487b7100000000000000000000000000000000000000000000000000000000600052601260045260246000fd5b6000611f3b826117c3565b9150611f46836117c3565b925082611f5657611f55611f01565b5b828204905092915050565b6000611f6c826117c3565b9150611f77836117c3565b9250828202611f85816117c3565b91508282048414831517611f9c57611f9b611d20565b5b5092915050565b6000611fae826117c3565b9150611fb9836117c3565b9250828203905081811115611fd157611fd0611d20565b5b92915050565b611fe081611773565b82525050565b6000606082019050611ffb6000830186611fd7565b6120086020830185611fd7565b6120156040830184611b13565b949350505050565b60006060820190506120326000830186611b13565b61203f6020830185611b13565b61204c6040830184611b13565b949350505050565b7f4e487b7100000000000000000000000000000000000000000000000000000000600052604160045260246000fd5b7f4e487b7100000000000000000000000000000000000000000000000000000000600052603260045260246000fd5b60006120bd826117c3565b91506120c8836117c3565b92508282019050808211156120e0576120df611d20565b5b9291505056fea264697066735822122089e9283189a131ae298f64f80d3c67d03fb19621d24615a0963803430859ebbb64736f6c63430008180033",
  "linkReferences": {},
  "deployedLinkReferences": {}
}