{
  "_format": "hh-sol-artifact-1",
  "contractName": "Marketplace",
  "sourceName": "contracts/Marketplace.sol",
  "abi": [
    {
      "inputs": [
        {
          "internalType": "uint256",
          "name": "_feePercent",
          "type": "uint256"
        }
      ],
      "stateMutability": "nonpayable",
      "type": "constructor"
    },
    {
      "anonymous": false,
      "inputs": [
        {
          "indexed": false,
          "internalType": "uint256",
          "name": "itemId",
          "type": "uint256"
        },
        {
          "indexed": true,
          "internalType": "address",
          "name": "nft",
          "type": "address"
        },
        {
          "indexed": false,
          "internalType": "uint256",
          "name": "tokenId",
          "type": "uint256"
        },
        {
          "indexed": false,
          "internalType": "uint256",
          "name": "price",
          "type": "uint256"
        },
        {
          "indexed": true,
          "internalType": "address",
          "name": "seller",
          "type": "address"
        },
        {
          "indexed": true,
          "internalType": "address",
          "name": "buyer",
          "type": "address"
        }
      ],
      "name": "Bought",
      "type": "event"
    },
    {
      "anonymous": false,
      "inputs": [
        {
          "indexed": false,
          "internalType": "uint256",
          "name": "itemId",
          "type": "uint256"
        },
        {
          "indexed": true,
          "internalType": "address",
          "name": "nft",
          "type": "address"
        },
        {
          "indexed": false,
          "internalType": "uint256",
          "name": "tokenId",
          "type": "uint256"
        },
        {
          "indexed": false,
          "internalType": "uint256",
          "name": "price",
          "type": "uint256"
        },
        {
          "indexed": true,
          "internalType": "address",
          "name": "seller",
          "type": "address"
        }
      ],
      "name": "Offered",
      "type": "event"
    },
    {
      "inputs": [
        {
          "internalType": "uint256",
          "name": "_itemId",
          "type": "uint256"
        }
      ],
      "name": "Buy",
      "outputs": [],
      "stateMutability": "payable",
      "type": "function"
    },
    {
      "inputs": [],
      "name": "NGO",
      "outputs": [
        {
          "internalType": "address payable",
          "name": "",
          "type": "address"
        }
      ],
      "stateMutability": "view",
      "type": "function"
    },
    {
      "inputs": [],
      "name": "feeAccount",
      "outputs": [
        {
          "internalType": "address payable",
          "name": "",
          "type": "address"
        }
      ],
      "stateMutability": "view",
      "type": "function"
    },
    {
      "inputs": [],
      "name": "feePercent",
      "outputs": [
        {
          "internalType": "uint256",
          "name": "",
          "type": "uint256"
        }
      ],
      "stateMutability": "view",
      "type": "function"
    },
    {
      "inputs": [],
      "name": "getAllNft",
      "outputs": [
        {
          "components": [
            {
              "internalType": "uint256",
              "name": "itemId",
              "type": "uint256"
            },
            {
              "internalType": "contract IERC721",
              "name": "nft",
              "type": "address"
            },
            {
              "internalType": "uint256",
              "name": "tokenId",
              "type": "uint256"
            },
            {
              "internalType": "uint256",
              "name": "prevPrice",
              "type": "uint256"
            },
            {
              "internalType": "uint256",
              "name": "price",
              "type": "uint256"
            },
            {
              "internalType": "address payable",
              "name": "seller",
              "type": "address"
            },
            {
              "internalType": "bool",
              "name": "toBeSold",
              "type": "bool"
            },
            {
              "internalType": "address payable",
              "name": "creator",
              "type": "address"
            },
            {
              "internalType": "uint256",
              "name": "percentageDonated",
              "type": "uint256"
            },
            {
              "internalType": "uint256",
              "name": "royaltyPercentage",
              "type": "uint256"
            }
          ],
          "internalType": "struct Marketplace.Item[]",
          "name": "",
          "type": "tuple[]"
        }
      ],
      "stateMutability": "view",
      "type": "function"
    },
    {
      "inputs": [],
      "name": "getNft",
      "outputs": [
        {
          "components": [
            {
              "internalType": "uint256",
              "name": "itemId",
              "type": "uint256"
            },
            {
              "internalType": "contract IERC721",
              "name": "nft",
              "type": "address"
            },
            {
              "internalType": "uint256",
              "name": "tokenId",
              "type": "uint256"
            },
            {
              "internalType": "uint256",
              "name": "prevPrice",
              "type": "uint256"
            },
            {
              "internalType": "uint256",
              "name": "price",
              "type": "uint256"
            },
            {
              "internalType": "address payable",
              "name": "seller",
              "type": "address"
            },
            {
              "internalType": "bool",
              "name": "toBeSold",
              "type": "bool"
            },
            {
              "internalType": "address payable",
              "name": "creator",
              "type": "address"
            },
            {
              "internalType": "uint256",
              "name": "percentageDonated",
              "type": "uint256"
            },
            {
              "internalType": "uint256",
              "name": "royaltyPercentage",
              "type": "uint256"
            }
          ],
          "internalType": "struct Marketplace.Item[]",
          "name": "",
          "type": "tuple[]"
        }
      ],
      "stateMutability": "view",
      "type": "function"
    },
    {
      "inputs": [
        {
          "internalType": "uint256",
          "name": "_itemId",
          "type": "uint256"
        }
      ],
      "name": "getTotalPrice",
      "outputs": [
        {
          "internalType": "uint256",
          "name": "",
          "type": "uint256"
        }
      ],
      "stateMutability": "view",
      "type": "function"
    },
    {
      "inputs": [],
      "name": "itemCount",
      "outputs": [
        {
          "internalType": "uint256",
          "name": "",
          "type": "uint256"
        }
      ],
      "stateMutability": "view",
      "type": "function"
    },
    {
      "inputs": [
        {
          "internalType": "uint256",
          "name": "",
          "type": "uint256"
        }
      ],
      "name": "items",
      "outputs": [
        {
          "internalType": "uint256",
          "name": "itemId",
          "type": "uint256"
        },
        {
          "internalType": "contract IERC721",
          "name": "nft",
          "type": "address"
        },
        {
          "internalType": "uint256",
          "name": "tokenId",
          "type": "uint256"
        },
        {
          "internalType": "uint256",
          "name": "prevPrice",
          "type": "uint256"
        },
        {
          "internalType": "uint256",
          "name": "price",
          "type": "uint256"
        },
        {
          "internalType": "address payable",
          "name": "seller",
          "type": "address"
        },
        {
          "internalType": "bool",
          "name": "toBeSold",
          "type": "bool"
        },
        {
          "internalType": "address payable",
          "name": "creator",
          "type": "address"
        },
        {
          "internalType": "uint256",
          "name": "percentageDonated",
          "type": "uint256"
        },
        {
          "internalType": "uint256",
          "name": "royaltyPercentage",
          "type": "uint256"
        }
      ],
      "stateMutability": "view",
      "type": "function"
    },
    {
      "inputs": [
        {
          "internalType": "contract IERC721",
          "name": "_nft",
          "type": "address"
        },
        {
          "internalType": "uint256",
          "name": "_tokenId",
          "type": "uint256"
        },
        {
          "internalType": "uint256",
          "name": "_price",
          "type": "uint256"
        },
        {
          "internalType": "uint256",
          "name": "_percentageDonated",
          "type": "uint256"
        },
        {
          "internalType": "uint256",
          "name": "_royalty",
          "type": "uint256"
        }
      ],
      "name": "makeNFT",
      "outputs": [],
      "stateMutability": "nonpayable",
      "type": "function"
    },
    {
      "inputs": [
        {
          "internalType": "address",
          "name": "",
          "type": "address"
        },
        {
          "internalType": "uint256",
          "name": "",
          "type": "uint256"
        }
      ],
      "name": "owned_nft",
      "outputs": [
        {
          "internalType": "uint256",
          "name": "itemId",
          "type": "uint256"
        },
        {
          "internalType": "contract IERC721",
          "name": "nft",
          "type": "address"
        },
        {
          "internalType": "uint256",
          "name": "tokenId",
          "type": "uint256"
        },
        {
          "internalType": "uint256",
          "name": "prevPrice",
          "type": "uint256"
        },
        {
          "internalType": "uint256",
          "name": "price",
          "type": "uint256"
        },
        {
          "internalType": "address payable",
          "name": "seller",
          "type": "address"
        },
        {
          "internalType": "bool",
          "name": "toBeSold",
          "type": "bool"
        },
        {
          "internalType": "address payable",
          "name": "creator",
          "type": "address"
        },
        {
          "internalType": "uint256",
          "name": "percentageDonated",
          "type": "uint256"
        },
        {
          "internalType": "uint256",
          "name": "royaltyPercentage",
          "type": "uint256"
        }
      ],
      "stateMutability": "view",
      "type": "function"
    },
    {
      "inputs": [
        {
          "internalType": "uint256",
          "name": "_itemId",
          "type": "uint256"
        }
      ],
      "name": "removeNFT",
      "outputs": [],
      "stateMutability": "nonpayable",
      "type": "function"
    },
    {
      "inputs": [
        {
          "internalType": "uint256",
          "name": "_price",
          "type": "uint256"
        },
        {
          "internalType": "uint256",
          "name": "_itemId",
          "type": "uint256"
        }
      ],
      "name": "updatePrice",
      "outputs": [],
      "stateMutability": "nonpayable",
      "type": "function"
    }
  ],
  "bytecode": "0x60e06040523480156200001157600080fd5b5060405162002163380380620021638339818101604052810190620000379190620000ee565b3373ffffffffffffffffffffffffffffffffffffffff1660808173ffffffffffffffffffffffffffffffffffffffff16815250508060a081815250503373ffffffffffffffffffffffffffffffffffffffff1660c08173ffffffffffffffffffffffffffffffffffffffff16815250505062000120565b600080fd5b6000819050919050565b620000c881620000b3565b8114620000d457600080fd5b50565b600081519050620000e881620000bd565b92915050565b600060208284031215620001075762000106620000ae565b5b60006200011784828501620000d7565b91505092915050565b60805160a05160c051611ffe6200016560003960008181610960015261110701526000818161107301526113e6015260008181610b2e0152610f6b0152611ffe6000f3fe6080604052600436106100c25760003560e01c80637fd6f15c1161007f578063ac513fb811610059578063ac513fb814610252578063bfb231d21461027d578063ca7dd375146102c3578063ee4739cb14610300576100c2565b80637fd6f15c146101d357806382367b2d146101fe578063937d7f1114610227576100c2565b806304d1afe7146100c75780633e328218146100f057806363ba31cf1461010c57806365e17c9d146101375780636bfb0d01146101625780636f2229f21461018d575b600080fd5b3480156100d357600080fd5b506100ee60048036038101906100e9919061170a565b610329565b005b61010a60048036038101906101059190611785565b61077e565b005b34801561011857600080fd5b50610121610d99565b60405161012e91906119d8565b60405180910390f35b34801561014357600080fd5b5061014c610f69565b6040516101599190611a09565b60405180910390f35b34801561016e57600080fd5b50610177610f8d565b6040516101849190611a33565b60405180910390f35b34801561019957600080fd5b506101b460048036038101906101af9190611a7a565b610f93565b6040516101ca9a99989796959493929190611ad8565b60405180910390f35b3480156101df57600080fd5b506101e8611071565b6040516101f59190611a33565b60405180910390f35b34801561020a57600080fd5b5061022560048036038101906102209190611b74565b611095565b005b34801561023357600080fd5b5061023c611105565b6040516102499190611a09565b60405180910390f35b34801561025e57600080fd5b50610267611129565b60405161027491906119d8565b60405180910390f35b34801561028957600080fd5b506102a4600480360381019061029f9190611785565b61131f565b6040516102ba9a99989796959493929190611ad8565b60405180910390f35b3480156102cf57600080fd5b506102ea60048036038101906102e59190611785565b6113e0565b6040516102f79190611a33565b60405180910390f35b34801561030c57600080fd5b5061032760048036038101906103229190611785565b611443565b005b6000831161036c576040517f08c379a000000000000000000000000000000000000000000000000000000000815260040161036390611c11565b60405180910390fd5b60008081548092919061037e90611c60565b919050555060405180610140016040528060005481526020018673ffffffffffffffffffffffffffffffffffffffff168152602001858152602001600081526020018481526020013373ffffffffffffffffffffffffffffffffffffffff1681526020016001151581526020013373ffffffffffffffffffffffffffffffffffffffff1681526020018381526020018281525060016000805481526020019081526020016000206000820151816000015560208201518160010160006101000a81548173ffffffffffffffffffffffffffffffffffffffff021916908373ffffffffffffffffffffffffffffffffffffffff16021790555060408201518160020155606082015181600301556080820151816004015560a08201518160050160006101000a81548173ffffffffffffffffffffffffffffffffffffffff021916908373ffffffffffffffffffffffffffffffffffffffff16021790555060c08201518160050160146101000a81548160ff02191690831515021790555060e08201518160060160006101000a81548173ffffffffffffffffffffffffffffffffffffffff021916908373ffffffffffffffffffffffffffffffffffffffff16021790555061010082015181600701556101208201518160080155905050600260003373ffffffffffffffffffffffffffffffffffffffff1673ffffffffffffffffffffffffffffffffffffffff16815260200190815260200160002060016000805481526020019081526020016000209080600181540180825580915050600190039060005260206000209060090201600090919091909150600082015481600001556001820160009054906101000a900473ffffffffffffffffffffffffffffffffffffffff168160010160006101000a81548173ffffffffffffffffffffffffffffffffffffffff021916908373ffffffffffffffffffffffffffffffffffffffff1602179055506002820154816002015560038201548160030155600482015481600401556005820160009054906101000a900473ffffffffffffffffffffffffffffffffffffffff168160050160006101000a81548173ffffffffffffffffffffffffffffffffffffffff021916908373ffffffffffffffffffffffffffffffffffffffff1602179055506005820160149054906101000a900460ff168160050160146101000a81548160ff0219169083151502179055506006820160009054906101000a900473ffffffffffffffffffffffffffffffffffffffff168160060160006101000a81548173ffffffffffffffffffffffffffffffffffffffff021916908373ffffffffffffffffffffffffffffffffffffffff160217905550600782015481600701556008820154816008015550505050505050565b60008111801561079057506000548111155b6107cf576040517f08c379a00000000000000000000000000000000000000000000000000000000081526004016107c690611cf4565b60405180910390fd5b60006107da826113e0565b90508034111561081f576040517f08c379a000000000000000000000000000000000000000000000000000000000815260040161081690611d86565b60405180910390fd5b60006001600084815260200190815260200160002090508060050160149054906101000a900460ff1615610888576040517f08c379a000000000000000000000000000000000000000000000000000000000815260040161087f90611df2565b60405180910390fd5b600061089782600001546114c6565b90506000811115610abc57600081606484600701546108b69190611e41565b6108c09190611e72565b905060008360050160009054906101000a900473ffffffffffffffffffffffffffffffffffffffff1673ffffffffffffffffffffffffffffffffffffffff168460060160009054906101000a900473ffffffffffffffffffffffffffffffffffffffff1673ffffffffffffffffffffffffffffffffffffffff161461095e5782606485600801546109519190611e41565b61095b9190611e72565b90505b7f000000000000000000000000000000000000000000000000000000000000000073ffffffffffffffffffffffffffffffffffffffff166108fc839081150290604051600060405180830381858888f193505050501580156109c4573d6000803e3d6000fd5b508360060160009054906101000a900473ffffffffffffffffffffffffffffffffffffffff1673ffffffffffffffffffffffffffffffffffffffff166108fc829081150290604051600060405180830381858888f19350505050158015610a2f573d6000803e3d6000fd5b508360050160009054906101000a900473ffffffffffffffffffffffffffffffffffffffff1673ffffffffffffffffffffffffffffffffffffffff166108fc82848760040154610a7f9190611eb4565b610a899190611eb4565b9081150290604051600060405180830381858888f19350505050158015610ab4573d6000803e3d6000fd5b505050610b2c565b8160050160009054906101000a900473ffffffffffffffffffffffffffffffffffffffff1673ffffffffffffffffffffffffffffffffffffffff166108fc83600401549081150290604051600060405180830381858888f19350505050158015610b2a573d6000803e3d6000fd5b505b7f000000000000000000000000000000000000000000000000000000000000000073ffffffffffffffffffffffffffffffffffffffff166108fc836004015485610b769190611eb4565b9081150290604051600060405180830381858888f19350505050158015610ba1573d6000803e3d6000fd5b5060008260050160146101000a81548160ff0219169083151502179055508160010160009054906101000a900473ffffffffffffffffffffffffffffffffffffffff1673ffffffffffffffffffffffffffffffffffffffff166323b872dd303385600201546040518463ffffffff1660e01b8152600401610c2493929190611ef7565b600060405180830381600087803b158015610c3e57600080fd5b505af1158015610c52573d6000803e3d6000fd5b50505050338260050160006101000a81548173ffffffffffffffffffffffffffffffffffffffff021916908373ffffffffffffffffffffffffffffffffffffffff1602179055508160040154826003018190555060008260050160146101000a81548160ff0219169083151502179055503373ffffffffffffffffffffffffffffffffffffffff168260050160009054906101000a900473ffffffffffffffffffffffffffffffffffffffff1673ffffffffffffffffffffffffffffffffffffffff168360010160009054906101000a900473ffffffffffffffffffffffffffffffffffffffff1673ffffffffffffffffffffffffffffffffffffffff167f8b4c9c8a607d67b321582dd8461041b1dc2ceeca70c8b7f37f8e02095cf2e76d8786600201548760040154604051610d8b93929190611f2e565b60405180910390a450505050565b6060806000600190505b6000548111610f61576001600082815260200190815260200160002060405180610140016040529081600082015481526020016001820160009054906101000a900473ffffffffffffffffffffffffffffffffffffffff1673ffffffffffffffffffffffffffffffffffffffff1673ffffffffffffffffffffffffffffffffffffffff1681526020016002820154815260200160038201548152602001600482015481526020016005820160009054906101000a900473ffffffffffffffffffffffffffffffffffffffff1673ffffffffffffffffffffffffffffffffffffffff1673ffffffffffffffffffffffffffffffffffffffff1681526020016005820160149054906101000a900460ff161515151581526020016006820160009054906101000a900473ffffffffffffffffffffffffffffffffffffffff1673ffffffffffffffffffffffffffffffffffffffff1673ffffffffffffffffffffffffffffffffffffffff1681526020016007820154815260200160088201548152505082600183610f329190611eb4565b81518110610f4357610f42611f65565b5b60200260200101819052508080610f5990611c60565b915050610da3565b508091505090565b7f000000000000000000000000000000000000000000000000000000000000000081565b60005481565b60026020528160005260406000208181548110610faf57600080fd5b9060005260206000209060090201600091509150508060000154908060010160009054906101000a900473ffffffffffffffffffffffffffffffffffffffff16908060020154908060030154908060040154908060050160009054906101000a900473ffffffffffffffffffffffffffffffffffffffff16908060050160149054906101000a900460ff16908060060160009054906101000a900473ffffffffffffffffffffffffffffffffffffffff1690806007015490806008015490508a565b7f000000000000000000000000000000000000000000000000000000000000000081565b6000811180156110a757506000548111155b6110e6576040517f08c379a00000000000000000000000000000000000000000000000000000000081526004016110dd90611cf4565b60405180910390fd5b8160016000838152602001908152602001600020600401819055505050565b7f000000000000000000000000000000000000000000000000000000000000000081565b6060600260003373ffffffffffffffffffffffffffffffffffffffff1673ffffffffffffffffffffffffffffffffffffffff168152602001908152602001600020805480602002602001604051908101604052809291908181526020016000905b82821015611316578382906000526020600020906009020160405180610140016040529081600082015481526020016001820160009054906101000a900473ffffffffffffffffffffffffffffffffffffffff1673ffffffffffffffffffffffffffffffffffffffff1673ffffffffffffffffffffffffffffffffffffffff1681526020016002820154815260200160038201548152602001600482015481526020016005820160009054906101000a900473ffffffffffffffffffffffffffffffffffffffff1673ffffffffffffffffffffffffffffffffffffffff1673ffffffffffffffffffffffffffffffffffffffff1681526020016005820160149054906101000a900460ff161515151581526020016006820160009054906101000a900473ffffffffffffffffffffffffffffffffffffffff1673ffffffffffffffffffffffffffffffffffffffff1673ffffffffffffffffffffffffffffffffffffffff168152602001600782015481526020016008820154815250508152602001906001019061118a565b50505050905090565b60016020528060005260406000206000915090508060000154908060010160009054906101000a900473ffffffffffffffffffffffffffffffffffffffff16908060020154908060030154908060040154908060050160009054906101000a900473ffffffffffffffffffffffffffffffffffffffff16908060050160149054906101000a900460ff16908060060160009054906101000a900473ffffffffffffffffffffffffffffffffffffffff1690806007015490806008015490508a565b600060647f000000000000000000000000000000000000000000000000000000000000000060646114119190611f94565b60016000858152602001908152602001600020600401546114329190611e72565b61143c9190611e41565b9050919050565b60008111801561145557506000548111155b611494576040517f08c379a000000000000000000000000000000000000000000000000000000000815260040161148b90611cf4565b60405180910390fd5b60006001600083815260200190815260200160002060050160146101000a81548160ff02191690831515021790555050565b6000806001600084815260200190815260200160002060405180610140016040529081600082015481526020016001820160009054906101000a900473ffffffffffffffffffffffffffffffffffffffff1673ffffffffffffffffffffffffffffffffffffffff1673ffffffffffffffffffffffffffffffffffffffff1681526020016002820154815260200160038201548152602001600482015481526020016005820160009054906101000a900473ffffffffffffffffffffffffffffffffffffffff1673ffffffffffffffffffffffffffffffffffffffff1673ffffffffffffffffffffffffffffffffffffffff1681526020016005820160149054906101000a900460ff161515151581526020016006820160009054906101000a900473ffffffffffffffffffffffffffffffffffffffff1673ffffffffffffffffffffffffffffffffffffffff1673ffffffffffffffffffffffffffffffffffffffff168152602001600782015481526020016008820154815250509050806080015181606001516116579190611eb4565b915050919050565b600080fd5b600073ffffffffffffffffffffffffffffffffffffffff82169050919050565b600061168f82611664565b9050919050565b60006116a182611684565b9050919050565b6116b181611696565b81146116bc57600080fd5b50565b6000813590506116ce816116a8565b92915050565b6000819050919050565b6116e7816116d4565b81146116f257600080fd5b50565b600081359050611704816116de565b92915050565b600080600080600060a086880312156117265761172561165f565b5b6000611734888289016116bf565b9550506020611745888289016116f5565b9450506040611756888289016116f5565b9350506060611767888289016116f5565b9250506080611778888289016116f5565b9150509295509295909350565b60006020828403121561179b5761179a61165f565b5b60006117a9848285016116f5565b91505092915050565b600081519050919050565b600082825260208201905092915050565b6000819050602082019050919050565b6117e7816116d4565b82525050565b6000819050919050565b600061181261180d61180884611664565b6117ed565b611664565b9050919050565b6000611824826117f7565b9050919050565b600061183682611819565b9050919050565b6118468161182b565b82525050565b600061185782611664565b9050919050565b6118678161184c565b82525050565b60008115159050919050565b6118828161186d565b82525050565b6101408201600082015161189f60008501826117de565b5060208201516118b2602085018261183d565b5060408201516118c560408501826117de565b5060608201516118d860608501826117de565b5060808201516118eb60808501826117de565b5060a08201516118fe60a085018261185e565b5060c082015161191160c0850182611879565b5060e082015161192460e085018261185e565b506101008201516119396101008501826117de565b5061012082015161194e6101208501826117de565b50505050565b60006119608383611888565b6101408301905092915050565b6000602082019050919050565b6000611985826117b2565b61198f81856117bd565b935061199a836117ce565b8060005b838110156119cb5781516119b28882611954565b97506119bd8361196d565b92505060018101905061199e565b5085935050505092915050565b600060208201905081810360008301526119f2818461197a565b905092915050565b611a038161184c565b82525050565b6000602082019050611a1e60008301846119fa565b92915050565b611a2d816116d4565b82525050565b6000602082019050611a486000830184611a24565b92915050565b611a5781611684565b8114611a6257600080fd5b50565b600081359050611a7481611a4e565b92915050565b60008060408385031215611a9157611a9061165f565b5b6000611a9f85828601611a65565b9250506020611ab0858286016116f5565b9150509250929050565b611ac38161182b565b82525050565b611ad28161186d565b82525050565b600061014082019050611aee600083018d611a24565b611afb602083018c611aba565b611b08604083018b611a24565b611b15606083018a611a24565b611b226080830189611a24565b611b2f60a08301886119fa565b611b3c60c0830187611ac9565b611b4960e08301866119fa565b611b57610100830185611a24565b611b65610120830184611a24565b9b9a5050505050505050505050565b60008060408385031215611b8b57611b8a61165f565b5b6000611b99858286016116f5565b9250506020611baa858286016116f5565b9150509250929050565b600082825260208201905092915050565b7f5072696365206d7573742062652067726561746572207468616e207a65726f00600082015250565b6000611bfb601f83611bb4565b9150611c0682611bc5565b602082019050919050565b60006020820190508181036000830152611c2a81611bee565b9050919050565b7f4e487b7100000000000000000000000000000000000000000000000000000000600052601160045260246000fd5b6000611c6b826116d4565b91507fffffffffffffffffffffffffffffffffffffffffffffffffffffffffffffffff8203611c9d57611c9c611c31565b5b600182019050919050565b7f6974656d20646f65736e27742065786973740000000000000000000000000000600082015250565b6000611cde601283611bb4565b9150611ce982611ca8565b602082019050919050565b60006020820190508181036000830152611d0d81611cd1565b9050919050565b7f6e6f7420656e6f75676820657468657220746f20636f766572206974656d207060008201527f7269636520616e64206d61726b65742066656500000000000000000000000000602082015250565b6000611d70603383611bb4565b9150611d7b82611d14565b604082019050919050565b60006020820190508181036000830152611d9f81611d63565b9050919050565b7f6974656d20616c726561647920736f6c64000000000000000000000000000000600082015250565b6000611ddc601183611bb4565b9150611de782611da6565b602082019050919050565b60006020820190508181036000830152611e0b81611dcf565b9050919050565b7f4e487b7100000000000000000000000000000000000000000000000000000000600052601260045260246000fd5b6000611e4c826116d4565b9150611e57836116d4565b925082611e6757611e66611e12565b5b828204905092915050565b6000611e7d826116d4565b9150611e88836116d4565b9250828202611e96816116d4565b91508282048414831517611ead57611eac611c31565b5b5092915050565b6000611ebf826116d4565b9150611eca836116d4565b9250828203905081811115611ee257611ee1611c31565b5b92915050565b611ef181611684565b82525050565b6000606082019050611f0c6000830186611ee8565b611f196020830185611ee8565b611f266040830184611a24565b949350505050565b6000606082019050611f436000830186611a24565b611f506020830185611a24565b611f5d6040830184611a24565b949350505050565b7f4e487b7100000000000000000000000000000000000000000000000000000000600052603260045260246000fd5b6000611f9f826116d4565b9150611faa836116d4565b9250828201905080821115611fc257611fc1611c31565b5b9291505056fea264697066735822122088bbd43e4f20bf8e364869cb55eb47f55a44ad48217de791f591a58c550d061564736f6c63430008180033",
  "linkReferences": {},
  "deployedLinkReferences": {}
}